:020000040800F2
:10000000002000200D5200086551000867510008CB
:1000100000000000000000000000000000000000E0
:10002000000000000000000000000000695100080E
:1000300000000000000000006B5100086D51000836
:100040005D5200085D5200085D5200085D520008D4
:100050005D5200085D5200085D5200085D520008C4
:10006000000000005D5200085D5200085D5200086B
:100070005D5200085D520008000000005D5200085B
:10008000000000005D5200080000000000000000B9
:100090005D520008000000005D5200085D5200083B
:1000A0005D5200085D5200085D5200085D52000874
:1000B0005D5200085D5200080000000000000000D2
:1000C00010B5064C2378002B07D1054B002B02D02E
:1000D000044800E000BF0123237010BDD8010020B8
:1000E00000000000D4730008044B10B5002B03D0AF
:1000F0000349044800E000BF10BDC04600000000F6
:10010000DC010020D4730008002243088B4274D322
:1001100003098B425FD3030A8B4244D3030B8B4208
:1001200028D3030C8B420DD3FF22090212BA030C11
:100130008B4202D31212090265D0030B8B4219D3F2
:1001400000E0090AC30B8B4201D3CB03C01A524112
:10015000830B8B4201D38B03C01A5241430B8B425A
:1001600001D34B03C01A5241030B8B4201D30B0343
:10017000C01A5241C30A8B4201D3CB02C01A52416A
:10018000830A8B4201D38B02C01A5241430A8B422D
:1001900001D34B02C01A5241030A8B4201D30B0216
:1001A000C01A5241CDD2C3098B4201D3CB01C01A30
:1001B000524183098B4201D38B01C01A524143093A
:1001C0008B4201D34B01C01A524103098B4201D328
:1001D0000B01C01A5241C3088B4201D3CB00C01A95
:1001E000524183088B4201D38B00C01A524143080D
:1001F0008B4201D34B00C01A5241411A00D2014632
:10020000524110467047FFE701B5002000F006F8A4
:1002100002BDC0460029F7D076E770477047C04658
:10022000002B11D1002A0FD1002900D1002802D0C3
:100230000021C943081C07B4024802A140180290DB
:1002400003BDC046D9FFFFFF03B4684601B502985D
:1002500000F006F8019B9E4602B00CBC7047C046F9
:10026000F0B54F464646D646C0B5040082B00D00F4
:10027000914698468B422FD82CD04146484600F0F4
:10028000A9FF29000600200000F0A4FF331A9C46B5
:10029000203B9A4600D576E04B46524693401F00DD
:1002A0004B46624693401E00AF4228D825D05346A5
:1002B000A41BBD41002B00DA7BE00022002300924A
:1002C00001930123524693400193012362469340D8
:1002D000009318E08242D0D90022002300920193BB
:1002E0000A9B002B01D01C605D600098019902B050
:1002F0001CBC90469946A246F0BDA342D7D9002225
:100300000023009201936346002BE9D0FB07984637
:10031000414672080A437B0866460EE0AB4201D1B3
:10032000A2420CD8A41A9D41012024196D4100213C
:10033000013E24184D41002E06D0AB42EED9013EBD
:1003400024196D41002EF8D10098019953460019E7
:100350006941002B23DB2B005246D3402A00644620
:10036000E2401C0053461500002B2DDB26005746AB
:10037000BE40330026006746BE403200801A9941D5
:1003800000900191ACE7624620239B1A4A46DA406E
:100390006146130042468A4017001F4380E76246C9
:1003A00020239B1A2A0066469A402300F3401343F9
:1003B000D4E76246202300219B1A0022009101927B
:1003C0000122DA40019280E72023624626009B1A30
:1003D000DE402F00B0466646B74046463B003343FA
:1003E000C8E7C04670B500283DD0C317C5185D40AA
:1003F000C40F280000F0D0FE9E22121A962A07DCB5
:10040000D2B2082833DD083885406802400A23E06C
:10041000992A0BDD052329001B1AD94003001B3341
:100420009D402B005D1EAB4119430D00052801DDE9
:10043000431F9D402B000F490B406E0709D00F262C
:100440003540042D05D004335D0102D59F220B40B9
:10045000121A9B01580AD2B24002D205400AE407A0
:100460001043204370BD002400220020F4E76802FE
:10047000400AF1E7FFFFFFFBF0B55746DE464E4668
:100480004546E0B5834606000F03480087B0924614
:100490001D003F0B400DCC0F002800D16FE0DE4B5C
:1004A000984238D08023FF001B041F43730F3B4347
:1004B0000193DA4B0027994600239B46F6008144BE
:1004C0002B0369001B0B52469846490DED0F00297E
:1004D00000D185E0D04B994200D173E04346DA0069
:1004E00080231B0413435246CC48520F84461343C7
:1004F000524600206144D2008944210069400091A5
:100500008C46012149448A460F2F00D990E0C44906
:10051000BF00CF59BF465B463B43019300D06AE121
:1005200002230827002681469B46C9E73200584629
:10053000019B61460091022800D175E0032800D19B
:10054000FEE1012800D02CE1002300270026002531
:100550003F032A0D3F0BB34812053A4302401B05E7
:100560001343009A5B00D1075B080B43300019006E
:1005700007B03CBC90469946A246AB46F0BD5B46F0
:100580003B43019300D12FE1002F00D1A5E13800BA
:1005900000F002FE03000B3B1C2B00DD96E11D2248
:1005A000D31A5A460100DA405E4608398F401300DC
:1005B0008E403B4301939C4B00271B1A9946002316
:1005C0009B467DE7414653460B4393498C46E144A5
:1005D000002B00D01AE102220220174300228CE7F0
:1005E000134300D10DE14346002B00D181E1404689
:1005F00000F0D2FD02000B3A1C2A00DD72E101007E
:10060000434608398B4098461D239A1A5346D340D7
:100610001A004346134352468A404946081A824903
:1006200089468144002068E77B4B002700268EE73F
:10063000140C1204120C1100370C3604350C7943DB
:1006400028008C462E0060436044834656432100B8
:10065000300C80465846794340440291844506D97F
:100660008846802149028C46E04441460291360486
:10067000010C360C00048B4681191E0C1B041B0C4C
:100680000391190079438C46280075436544A846B8
:100690005843050C45447743A94203D980214902B8
:1006A0008C466744290C8C4639000004000C2D044C
:1006B0002D186144AB4405915946049101990F04EA
:1006C0003F0C080C390051434243904602008C46CF
:1006D000090C8B4662437C4344445C44A04503D9E7
:1006E0008021490288464244210C8846614609041B
:1006F000090C8C4639005943434370437E430F0C29
:10070000F6182404BE19644442448C46B34203D90B
:1007100080235B0298464044029B61469846049BB6
:10072000370443449B46AB45AD416B420D040599EC
:100730002D0C8C467F196744FD18A8465D462D197F
:10074000A542A44193466442A446C344DC448F427C
:10075000BF4198459B4193459241A445A4415B42CA
:100760007F421F43360C52426442BF192243BF18D6
:10077000624638184302D20D039913436A020A43B2
:10078000501E82416146ED0D2A434E023243D9018B
:1007900000D4B3E00126500832400243DE07324362
:1007A0005B08224C5444002C62DD510709D00F2015
:1007B0001040042805D0101D9042924152429B18CF
:1007C0000200D90104D580241948E40003405444B0
:1007D0001848844200DD27E75E075B02D2081F0B42
:1007E000630516435B0DB2E60023994601330427E7
:1007F00000269B4664E60323019781460C279B460F
:100800005EE6012201201743002276E6032303203F
:100810001F43434671E6C046FF07000001FCFFFF8F
:100820005C740008FFFF0F800DFCFFFFFF0300005A
:10083000FFFFFFFEFE0700000023802700933F0319
:100840000026434B83E6019B3200A446584670E6DF
:10085000AC466EE6802701993F0339422DD03B42DA
:100860002BD11F433F033F0B00951600384B6EE61C
:1008700001252D1B382D00DD66E61F2D40DC354897
:100880001C005044160082408440EE40501E8241BD
:1008900034431443EB40620709D00F222240042A5C
:1008A00005D02200141D9442804140421B181A02B8
:1008B0003ED501230027002649E68027019B3F0300
:1008C0001F433F033F0B0094214B40E603005A4671
:1008D000283B9A40002601926DE6584600F05CFCE9
:1008E000203057E603005246283B9A40130000226E
:1008F00093E6504600F050FC20307BE6CA4650E7B5
:100900001F201E004042041BE640202D03D0124C45
:100910005444A3401A43501E824132430726002705
:10092000164009D00F200023104014000428B9D12C
:1009300022005E075B021F0BD2081643002306E667
:1009400080273F031F433F033F0B1600004BFEE58C
:10095000FF0700001E0400003E040000F8B55746E3
:100960004E464546DE460C000903E0B5490A460FEF
:100970005F0031431E03DB0F760A9B46530F334360
:10098000C84E6500C000E40FD2006D0DA24681463E
:100990007F0D9C469046B74200D1B9E05B460126E8
:1009A00073409B46EE1BA34500D183E0002E63DD20
:1009B000002F00D0B1E06346134300D123E1731E42
:1009C000002B00D0BAE1861A6346B042804101256F
:1009D000C91A4042091A0B0200D447E149024B0AE6
:1009E00098464346002B00D189E1404600F0D4FBF5
:1009F0000300083B1F2B00DD7CE120223000D21ACF
:100A00004146D040994002009E400A439D4200DD8D
:100A10006AE15D1B6B1C1F2B00DD94E1202110009F
:100A20003500C91A8E40DA408840DD40711E8E4183
:100A3000110007222843002506433240002A09D02E
:100A40000F233340042B05D0331DB342B641764209
:100A500089191E000B0200D43DE26A1C914B55051A
:100A60006D0D9A4200D119E18F4AF6080A405707E6
:100A700052023743120B9BE0002E00D0C5E06E1CE3
:100A80007605760D012E00DC48E16746861ACB1B01
:100A9000B042BF417F42B8461F004346FF1A3B00A9
:100AA000B8461B0200D55FE137439AD100220024EB
:100AB000002579E0002E00DCFAE0002F00D18DE067
:100AC000784B9D4267D0802367461B041F43BC467A
:100AD000382E00DC52E1634613435A1E93411E1820
:100AE00086428041404209180B0200D4BEE06D4BA3
:100AF00001359D4200D1D2E06B4A73080A400121C2
:100B00000E401E435108D30707221E43324095E78B
:100B10001E00164300D045E740E7624B9D423AD0A5
:100B2000802367461B041F43BC46382E00DDEBE0E4
:100B30001F2E00DC3AE133006746203BDF403B00DC
:100B4000202E05D04027BF1B6646BE40324390464C
:100B50004646721E96413343DAE0002B00D114E280
:100B60006346134300D168E180234E07C008C908DB
:100B70001B030643194208D06046C008184204D13E
:100B800063460100D2085E071643F3009946C90088
:100B9000720F444D11434B46DE08424B4F0737431B
:100BA000CA089D4200D16EE012036D05120B6D0D57
:100BB00000211203130B0A0D12051A433B4B2D059E
:100BC00013402B435B00E4075B0823433800190004
:100BD0003CBC90469946A246AB46F8BD63461343DB
:100BE00011D0731E002B00D007E186188642804189
:100BF00061444042091801250B0237D502257BE7E5
:100C00003E00614691463500C5E75C46002D00D0A8
:100C1000E1E00B000343F3D0731C00D1ACE1214BA6
:100C20009F4200D13AE1F343382B00DD6FE11F2BE7
:100C300000DD8CE120250E00ED1AAE40B046060026
:100C4000AA46DE40454635432E005546D940A840C9
:100C50006346451EA8415B1A9C463043161AB242B1
:100C6000924163465242991A3D00B4E6072232404F
:100C7000002A00D0E4E60B4BF6084F073743CA08BA
:100C80009D4200D090E73B00134300D1A6E18023B2
:100C90001B031A431203120B024D89E715000022B1
:100CA000002785E7FF070000FFFF7FFFFFFF0F80A2
:100CB000002E00D0C7E06B1C5E05760D012E00DC17
:100CC000F0E0C84DAB4200D1B9E085180A0085427A
:100CD00089416244494251180722CE076D082E43CC
:100CE000490832401D00A9E6BF49ED1A114007220C
:100CF0003240A3E6320028388240002686E63000E3
:100D000000F04AFA203073E6634613435A1E9341BB
:100D1000C61AB04280414042091A5CE60E0067469E
:100D200006431743002D5ED1002E00D0F3E0002FC4
:100D300000D11EE15C46614691462CE7A94FBE42B8
:100D40007BD01E00F1E610001F3DE840202B03D0B1
:100D50004021CB1A9A401643731E9E410722064338
:100D600032400021002583E7161A6346B2428041D3
:100D7000591A40420B1A98465C4632E61F2E00DD97
:100D8000ABE02027BB1B9A4663465746BB409946BB
:100D900013004F46F3401F433B005746BA40571ECF
:100DA000BA4113436246F240891898E62027BB1BDC
:100DB0009A4663465746BB40994613004F46F34058
:100DC0001F433B005746BA40571EBA411343624681
:100DD000F240891A9CE7834B9F425FD080252D0407
:100DE0007342294320E7002E0CD1002F00D1D0E020
:100DF0005C46614691467B4DCDE67A4FBE421CD0A3
:100E00001E0065E6002F18D0C0084E07064380205C
:100E1000C9080003014208D06346DC08044204D13B
:100E20002100DA46D2085E071643F30099460124F2
:100E30005346C900720F11431C406A4DABE61D00BA
:100E400000220027B4E6002D59D10B00034300D146
:100E5000D6E6731C00D1B2E0624B9F421ED0F34332
:100E6000382B6FDC1F2B00DD97E020250E00ED1ADC
:100E7000AE40B0460600AA46DE40454635432E0049
:100E80005546A840D940451EA8418C440643B61893
:100E900096429241514261443D0025E63D00614643
:100EA000914678E60B000343002D00D055E6002B59
:100EB000F5D06346134300D16DE686188642804123
:100EC00061444042091800220B0200D4D0E6464B90
:100ED00001351940B2E5B1465DE633006746203B77
:100EE000DF403B00202E05D04027BF1B6646BE409A
:100EF000324390464646721E96413343EFE5394BE6
:100F00009F42CBD080252D0473422943A8E7084394
:100F1000411E8841A2E6002F00D13CE66346861AB6
:100F2000CF1AB0429B415B42FB1A98461B024ED53A
:100F3000161A6346B2429241591A5242891A5C46C5
:100F400000227BE501430E00711E8E419FE71D00CC
:100F50000E00203DEE40B046202B04D04025EB1A79
:100F600099400843814648464346411E88411843FC
:100F700074E60022002417E6161A6346B242924134
:100F8000591A5242891A3D0025E561469146154D90
:100F900001E680220024120379E61D000E00203DA8
:100FA000EE40B046202B04D04025EB1A9940084370
:100FB00081464E464346711E8E411E4367E78618A2
:100FC00096429B4161445B42C9183D008CE547460F
:100FD0003743CED007224146324049E600273A0047
:100FE000E6E5C046FF070000FFFF7FFF4100090E56
:100FF0004B1C70B5DBB24602750AC40F012B14DD21
:10100000E0239B006D07360BCB1800210A0D28004A
:1010100012051C4D32435B052A405B0813435B00FD
:10102000E4075B082343190070BD002914D1002D8B
:101030001ED0280000F0B0F80A281CDC0B232A0080
:101040001B1ADA40030015339D400F4B12031B1A85
:101050005B05160B5B0DD8E7002D06D0320B802602
:1010600036036D071643094BCFE7084B0026CCE744
:1010700000230026C9E703002A000B3B9A40002505
:10108000E3E7C046FFFF0F8089030000FF07000071
:10109000F0B54C00640D0B03621C5B0A460F520551
:1010A000C90F1E43C500520D012A29DD374BE71831
:1010B000FE2F1CDC002F3BDD8001431E98410722E0
:1010C000F3006D0F03432B431A40002A04D00F2274
:1010D0001A40042A00D004338022D2041A4024D0BB
:1010E0000137FAB2FF2F02D09B01580A01E0FF221C
:1010F00000204002D205400AC90710430843F0BD52
:101100003543002C04D1002D0AD100220020F0E745
:10111000002DECD08020C0033043FF22E9E70024FB
:1011200000235B02580AE2B2E3E7DB083C00F8E781
:101130003B001733F3DB80231B0433431E26F61BCF
:101140001F2E14DD02225242D71B1A00FA4017004C
:10115000202E04D00E4A94466444A3401D432B0025
:101160005D1EAB4107223B431A400027ADE7094A09
:101170002800A218954093406C1EA541F04007221C
:101180002B4303431A4000279FE7C04680FCFFFF24
:10119000A2FCFFFF82FCFFFF1C2101231B049842DD
:1011A00001D3000C10391B0A984201D3000A0839F8
:1011B0001B09984201D30009043902A2105C4018AF
:1011C0007047C04604030202010101010000000053
:1011D0000000000010B5002903D1FFF7DDFF20302B
:1011E00002E0081CFFF7D8FF10BDC0460023C25C18
:1011F0000133002AFBD1581E7047000002B471462B
:1012000049084900095C49008E4402BC7047C04649
:1012100003460B437FD4002243088B4274D3030957
:101220008B425FD3030A8B4244D3030B8B4228D3F8
:10123000030C8B420DD3FF22090212BA030C8B421E
:1012400002D31212090265D0030B8B4219D300E0BE
:10125000090AC30B8B4201D3CB03C01A5241830B43
:101260008B4201D38B03C01A5241430B8B4201D3F3
:101270004B03C01A5241030B8B4201D30B03C01A1C
:101280005241C30A8B4201D3CB02C01A5241830A96
:101290008B4201D38B02C01A5241430A8B4201D3C5
:1012A0004B02C01A5241030A8B4201D30B02C01AEF
:1012B0005241CDD2C3098B4201D3CB01C01A524156
:1012C00083098B4201D38B01C01A524143098B42DF
:1012D00001D34B01C01A524103098B4201D30B01C8
:1012E000C01A5241C3088B4201D3CB00C01A5241ED
:1012F00083088B4201D38B00C01A524143088B42B2
:1013000001D34B00C01A5241411A00D2014652414A
:10131000104670475DE0CA0F00D04942031000D369
:101320004042534000229C4603098B422DD3030ABE
:101330008B4212D3FC22890112BA030A8B420CD3CE
:10134000890192118B4208D3890192118B4204D3F7
:1013500089013AD0921100E08909C3098B4201D377
:10136000CB01C01A524183098B4201D38B01C01AB1
:10137000524143098B4201D34B01C01A5241030928
:101380008B4201D30B01C01A5241C3088B4201D3D7
:10139000CB00C01A524183088B4201D38B00C01A84
:1013A0005241D9D243088B4201D34B00C01A52415B
:1013B000411A00D20146634652415B10104601D3E8
:1013C0004042002B00D54942704763465B1000D372
:1013D000404201B50020FEF721FF02BD0029F8D0F0
:1013E00016E770478446101C62468C46191C6346FB
:1013F00000E0C0461FB500F0F1FE002801D4002136
:10140000C8421FBD10B500F049FE4042013010BD7A
:1014100010B500F0E3FE002801DB002010BD012024
:1014200010BDC04610B500F0D9FE002801DD002037
:1014300010BD012010BDC04610B500F06BFE0028A5
:1014400001DC002010BD012010BDC04610B500F029
:1014500061FE002801DA002010BD012010BDC04649
:10146000F0B54F464646D6460C000903C0B5490ABA
:10147000470F5E0039431F03DB0F9C4665007B0A64
:10148000570F1F436D0DE40F760DA146C000B846FF
:10149000D200AB1B64457BD0002B5FDD002E00D05B
:1014A000A4E03E00164300D112E15E1E002E00D0E3
:1014B0009EE1871A4346B84280410125C91A40423D
:1014C000091A0B0200D431E149024E0A002E00D164
:1014D0006EE13000FFF760FE0300083B1F2B00DDCC
:1014E00061E120223900D21A9E40D1409F400E4334
:1014F0009D4200DD51E15D1B6B1C1F2B00DD7CE17B
:101500002021C91A3D0030008F408840DD40791EFF
:101510008F41310007222843D940002507433A4034
:10152000002A09D00F233B40042B05D03B1DBB42B2
:10153000BF417F42C9191F000B0200D426E26A1C7A
:10154000C64B55056D0D9A4200D106E1C44AFF080D
:101550000A40530752023B43120B8EE0002B00D08F
:10156000B8E06B1C5B055B0D012B00DC30E1871ADA
:101570004346B842B641CB1A76429E1B330200D591
:101580004CE13B003343A1D100220024002570E050
:10159000002B00DCE5E0002E00D183E0AF4EB54229
:1015A00060D0802636043743B846382B00DC3EE155
:1015B000434613431F007A1E97413F1887428041DC
:1015C000404209180B0200D4B0E0A44B01359D4203
:1015D00000D1C3E0A24A7B080A4001210F401F430B
:1015E0005108D30707221F433A4099E79B4EB54263
:1015F00038D0802636043743B846382B00DDDCE08F
:101600001F2B00DC30E11E004746203EF740BC4661
:10161000202B04D04026F31A46469E403243170042
:1016200063467A1E97411F43CCE0002B00D104E2B1
:101630004346134300D159E14B07C00818438023A8
:10164000C9081B03194208D04546ED081D4204D1C4
:101650004346D008590708432900420FC9007F4D6F
:101660001143C0004B07CA087C49C00803438D42A0
:1016700068D012036D05120B6D0D002112031800C6
:10168000130B0A0D12051A43764B2D0513402B43FD
:101690005B00E4075B08234319001CBC9046994695
:1016A000A246F0BD3E00164312D05E1E002E00D0B2
:1016B00000E18718874280414144404209180125D2
:1016C0000B0233D5022585E76446330041461000FE
:1016D0001D00C7E7002D00D0DAE00C000443F3D072
:1016E0005C1C00D19FE15D4CA64200D12FE1DB43A1
:1016F000382B00DD66E11F2B00DD83E1202405008F
:10170000E41A0F00DD40D940A0404346A7405B1AD1
:10171000441EA04198462F433843171ABA429241BB
:1017200043465242991A64463500CAE607223A40B7
:10173000002A00D0F6E64B07CA084849FF083B4399
:101740008D4296D11900114300D19EE180210903F9
:101750000A431203120B414D8FE7150000220023AC
:101760008BE7002B00D0C7E06B1C5F057F0D012FBE
:1017700000DCF1E0394DAB4200D1B9E085180A0038
:10178000854289414244494251180722CF076D08DA
:101790002F4349083A401D00C2E607223049ED1A9E
:1017A00031403A40BCE63E002838864000279FE69C
:1017B0003800FFF7F1FC20308EE6434613431F004C
:1017C0007A1E9741C71BB84280414042091A78E609
:1017D0000E003B0006431343002D61D1002E00D0C4
:1017E000F4E0002B00D11BE164463900100039E71A
:1017F0001A4FBB427AD03300FFE630001F3DE8406D
:10180000202B03D04021CB1A9E4037437B1E9F41A3
:10181000072207433A400021002589E7171A43466B
:10182000BA42B641591A76428E1B64464EE61F2BC9
:1018300000DDADE020264746F61AB740B94617004E
:10184000B246DF404E463E4337005646B240561E33
:10185000B24117434246DA408918AEE6FF0700005E
:10186000FFFF7FFFFFFF0F8020264746F61AB74095
:10187000B9461700B246DF404E463E433700564653
:10188000B240561EB24117434246DA40891A99E7E0
:101890007F4CA6425BD0802424045B42214327E78F
:1018A000002E0CD1002B00D1CBE064463900100093
:1018B000774DD7E6764FBB4218D0330075E6002B44
:1018C00014D04B07C00818438023C9081B031942D2
:1018D00007D0FC081C4204D17907D0080843E14630
:1018E00021004C46420FC9001143C000684DB9E6C3
:1018F0001D0000220023C0E6002D5BD10D00054332
:1019000000D1E2E65D1C00D1B0E0614DAE421FD0D7
:10191000DB43382B71DC1F2B00DD96E020250F0008
:10192000ED1AAF40B9460700AA46DF404D463D4399
:101930002F005546A840D940451EA841884407437A
:10194000BF18974292415142414435003AE66446FD
:1019500035004146100085E60B000343002D00D002
:1019600063E6002BF5D04346134300D17AE687188F
:101970008742804107224144404209183A400B0205
:1019800000D4D5E6434B01351940C9E5380069E676
:101990001E004746203EF740BC46202B04D0402680
:1019A000F31A46469E403243170063467A1E97411B
:1019B0001F4302E6364DAE42CAD080252D045B425D
:1019C0002943A6E70843411E8841A6E6002B00D123
:1019D00048E6871A4346B842B641CB1A76429E1B68
:1019E00033024BD5171A4346BA429241591A524212
:1019F000891A072264463A4092E501430F00791E96
:101A00008F419DE71C000F00203CE740202B03D0B6
:101A10004024E31A99400843411E884138437CE63C
:101A20000022002425E6171A4346BA429241591A69
:101A30005242891A6446350043E541461000144D70
:101A400010E680220024120380E61D000F00203DD6
:101A5000EF40BC46202B03D04025EB1A99400843A9
:101A600007006346781E87411F4369E7871897423E
:101A70009B4141445B42C9183500A3E53B00334319
:101A8000CED0072231003A4052E600231A00F4E596
:101A9000FF070000FFFF7FFFF0B55746DE464E46CA
:101AA0004546E0B5834607000E03480085B09246E0
:101AB0001C00360B400DCD0F002800D19DE0954B4A
:101AC000984239D08023F6001B041E43924A7B0FB4
:101AD0003343994694460300634400930023002651
:101AE000FF00029323031B0B98466300E40F52464A
:101AF0005B0D019400D1B3E086498B4200D19EE09A
:101B00004246D100802212040A435146490F114334
:101B10008B46814952468C4600996344CB1A00217A
:101B2000D20000932B0063409A460F2E00D905E1A6
:101B30007A4BB6009B599F465B463343994600D08B
:101B4000B8E002230826002700900293CAE7CB469C
:101B50003A0002990195019B9A46022927D0032950
:101B600000D180E2012944D06D49009B8C4663443A
:101B70001C00002C38DD530700D013E2D2085B466E
:101B8000DB0109D55946674B19408B468021C900B6
:101B90008C46009B63441C00634B9C4207DC5B4605
:101BA00064055F075B0217431B0B620D02E0002315
:101BB0000027584A00211B031C0B0B0D1B05234358
:101BC00014055A4A380013401C4353466400DB078F
:101BD00064081C43210005B03CBC90469946A246CF
:101BE000AB46F0BD0122524201231B1B382B00DC07
:101BF000ADE1002200230027DCE75B463343994632
:101C00005ED0002E00D18AE13000FFF7C5FA030054
:101C10000B3B1C2B00DD7BE11D22D31A5A46010031
:101C2000DA4008398E4013005F46334399468F40AF
:101C30003F4B00261B1A00930023029352E74146B4
:101C400053460B433B499B468C46009B63440093A1
:101C50005B46002B3BD1022300221E43022161E799
:101C6000434613439B4637D04346002B00D162E1E5
:101C70004046FFF791FA03000B3B1C2B00DD53E1BC
:101C800002004146083A914088461D21CB1A514630
:101C9000D9400B0041460B439B46534693401A00E4
:101CA000009B25499C46604403008C466344009396
:101CB000002137E70323B14600900C26029311E779
:101CC0000023009301330426002702930AE703232D
:101CD000C3461E43032125E701331E430022012191
:101CE00020E700239A46802300271B03094A61E767
:101CF000802349461B03194200D1E2E059461942AC
:101D000000D0DEE00B431B0317001B0BA246014A69
:101D100050E7C046FF07000001FCFFFF9C7400086D
:101D2000FF030000FFFFFFFEFE070000FFFF0F8024
:101D30000DFCFFFF01F8FFFFF3030000D94500D9B8
:101D4000CBE000D1C6E03C0048460027009B013BA9
:101D500000935B46160E1B021E4313029846330483
:101D60001B0C9946310C0191FEF754FA4A46424346
:101D70000B04210C050019438A4207D98919013D3A
:101D80008E4203D88A4201D9851E8919881A019981
:101D9000FEF740FA09048C464A4621046446424351
:101DA000090C030021438A4204D98919013B8E4260
:101DB00000D8F1E02D041D43AB464346891A424644
:101DC000280C12041D0C5B46140C22001B041B0C77
:101DD0005A4303946B434443029568431B19150C03
:101DE000EB189C4203D980246402A44660441C0C76
:101DF00015041B042D0C20185D19814277D373D074
:101E00000C1AA24A7D1BAF42BF419446009B7F4201
:101E10006344E01B1C00864200D1DBE00199FEF721
:101E2000F9F94A4642430B04290C070019438A4238
:101E300007D98919013F8E4203D88A4201D9871EEA
:101E40008919881A0199FEF7E5F909044A46894675
:101E500029044D464243090C030029438A4207D90D
:101E60008919013B8E4203D88A4201D9831E891900
:101E70003F04891A3A00039F1A43380013041B0CCD
:101E8000584381460298150C6F43434345434846E7
:101E9000000C8446DB1963449F4203D98020400232
:101EA0008446654448461F0C00041B04000C7D1941
:101EB0001818A94200D284E000D17FE001231A4320
:101EC00057E680234A461B0313431B031B0BAA46FA
:101ED0006F4A6FE6BA4200D935E74B46DC0758082F
:101EE0007B081C43FF0734E70024AF4289D24744F4
:101EF0004745A4415B466442A4196418013BA642CD
:101F00001ED2A0426DD800D1B6E0241A9B4678E7D5
:101F100003005A46283B9A400027914688E65846D7
:101F2000FFF73AF9203072E603005246283B9A4008
:101F300093460022B4E65046FFF72EF920309AE689
:101F4000A642E2D1B845DCD9341A9B4659E71F2B8B
:101F500065DC504C0099A4465C46614408008C4006
:101F600011008240D940501E82410C4314435A460E
:101F7000DA401300620709D00F222240042A05D05C
:101F80002200141D9442894149425B181A0262D50D
:101F90000122002300270DE68A4200D80AE7831EAB
:101FA000891907E70F231340042B00D1E6E5171D1D
:101FB0009742924153429B44FA08E0E5002800D141
:101FC000D7E57118531EB14227D3A94215D358D073
:101FD0001A0073E7002B00DC04E6012300229B4477
:101FE000CDE502234744474589415B429C4649422F
:101FF00089190C19E344241A03E743465F00474557
:102000009B41B8465B429E19023A8919A94200D009
:1020100054E7404500D051E7ABE51A00F6E71F2131
:102020005F4649420C1BE740202B07D01A49009B12
:102030008C46634418005B4683401A43501E82411D
:102040003A4307270023174009D00F2100231140EE
:102050001400042995D122005F075B021B0BD208F4
:1020600017430022A6E5802359461B030B431B039D
:1020700017001B0B064A9DE5BD42B2D89B460024C3
:10208000BFE68045B9D31A00C3E7C046FF0300008E
:10209000FF0700001E0400003E040000F0B54F469C
:1020A0004646D6468446C0B58046194E18030F03EF
:1020B0004D00000B5C0082463F0B6D0DC90F914631
:1020C000640DDB0F0120B5420AD0B44203D0A54213
:1020D00001D157450CD01CBC90469946A246F0BD94
:1020E00066463E43F7D1AC42F5D154461443F2D193
:1020F0000120C845EFD1994207D0002DEBD16346AE
:102100001F433800471EB841E5E70020E3E7C0461B
:10211000FF070000F0B54F464646D6464D00C0B515
:102120000E03C90F8A462C491F035C008046360BFC
:102130006D0D91463F0B640DDB0F8D421ED08C421E
:1021400016D0002D1ED130438446002C01D13A43D5
:1021500023D06246002A1AD09A4529D0514602203F
:102160000139084001381CBC90469946A246F0BD92
:1021700039001143E5D002204042F4E73043FAD160
:10218000AC420FD0002C0FD13A43E7D00CE0012233
:10219000013B934318000130E5E763460020002B24
:1021A000E1D0DBE73A43E6D19A45D7D1A542D5DC69
:1021B000A54205DBBE42D1D808D00020BE42D2D213
:1021C00050460123013898430130CCE7C845C5D8B3
:1021D0000020C845F4D3C6E7FF070000F0B54F461E
:1021E0004646D6464D00C0B50E03C90F8A462E4955
:1021F0001F035C008046360B6D0D91463F0B640D4E
:10220000DB0F8D4218D08C4211D0002D18D13043F5
:102210008446002C1ED13A431CD163460020002B7B
:1022200030D0514602200139084001382AE03900F7
:102230001143EAD0022025E03043FBD1AC4226D046
:10224000002C26D13A4324D15146022001390840BE
:10225000013817E06246002A0FD09A45E1D1A54225
:1022600005DBBE42DDD819D00020BE420AD250465E
:10227000012301389843013004E00122013B9343DC
:10228000180001301CBC90469946A246F0BD3A4366
:10229000D0D19A45C5D1A542C3DCE0E7C845C0D836
:1022A0000020C845E3D3EDE7FF07000070B50C4EF2
:1022B0000D031C0349005B002D0B490D240B5B0D26
:1022C000B14208D0064900208B4203D114432000BC
:1022D000441EA04170BD05430120002DFAD1F1E755
:1022E000FF07000030B5144D0A034B00120B5B0DC5
:1022F000C90F0024AB4211DD104CA34210DC802436
:10230000640322430E4CE41A1F2C0CDD0D48C31A43
:10231000DA4013005C42002900D11C00200030BDCF
:10232000094BCC18FAE7094DE040AC4663449A40AB
:1023300013000343EEE7C046FE0300001D04000047
:102340003304000013040000FFFFFF7FEDFBFFFFDD
:1023500070B500282DD0C317C5185D40C40F2800E4
:10236000FEF71AFF154B1B1A5B055B0D0A2815DDDE
:102370000B38854000222D032D0B002110002D036A
:102380000A0D2D0B12052A430D4D1B052A40134340
:102390005B00E4075B082343190070BD02002900BD
:1023A000153291400A000B21081AC5402D032D0B50
:1023B000E3E70024002300250022DEE71E040000DE
:1023C000FFFF0F8010B5041E25D0FEF7E5FE144B6D
:1023D0001B1A5B055B0D0A2812DD0B3884400022B6
:1023E0002403240B0021100024030A0D240B1205E2
:1023F00022430C4C1B05224013435B00590810BDBF
:1024000002002100153291400A000B21081AC44035
:102410002403240BE6E7002300240022E2E7C04661
:102420001E040000FFFF0F8010B50400094B186860
:10243000FA218900FDF768FE00F06EF8002801D04F
:10244000012010BD013000222100404200F034F88C
:102450000020F6E70400002010B5084A1368402168
:102460000B4313600020FFF7DFFF041E02D001249E
:10247000200010BD02F082FDFAE7C04600200240B5
:10248000024A1368013313607047C04604030020FA
:10249000014B18687047C0460403002070B5040063
:1024A000FFF7F6FF0500631C00D00134FFF7F0FFD3
:1024B000401BA042FAD370BD70B5002811DB840820
:1024C000134DC034A400625903231840C000FC33EC
:1024D0001E008640B24389010B4083401343635181
:1024E00070BDC0B20F220240083A92080632920034
:1024F000084BD3185D6803242040C000FF2214005D
:102500008440A54389010A4082402A435A60E7E794
:1025100000E100E000ED00E001380A4B98420FD8DE
:10252000094A50600948036A1B021B0AC0210906B8
:102530000B4303620023936007331360002070474E
:102540000120FCE7FFFFFF0010E000E000ED00E0ED
:10255000F0B5C64600B5002338E0052600E00026A9
:10256000AE4035003D430234A400554EA551554CB4
:1025700025684246D4432E0026404A68D20302D53D
:10258000424615432E004F4D2E606D682E002640AA
:102590004A68920302D5424615432E00494D6E60AB
:1025A000AD682E0026404A68D20202D54246154345
:1025B0002E00444DAE60ED682C404A68920202D570
:1025C00042462A4314003F4AD46001330A6814008B
:1025D000DC4072D001249C4022409046F5D04D68EA
:1025E000022D01D0122D0ED1DD080835AD002F5877
:1025F00007261E40B6000F22B24097430A69B24038
:1026000016003E432E504D686E1E012E03D9112D2B
:1026100001D0122D12D185685F000326BE40B5435C
:102620002E00CD68BD40354385604568A5434A68A6
:102630001609012434409C402C43446007685E0026
:1026400003242500B540ED432F404A681440B440B0
:102650003C430460C46825408C68B4402C43C4608B
:102660004A68D200B1D5184D6C6B012634436C63B7
:102670009C08A51CAD00124EAF5903261E40B500A4
:102680000F26AE40B743A026F605B04200D166E75C
:102690000E4EB0420BD00E4EB0420AD00D4EB0429C
:1026A00009D00D4EB04200D157E7062658E7012663
:1026B00056E7022654E7032652E704BC9046F0BDD5
:1026C00000000140000401400010024000040050DE
:1026D00000080050000C0050001C0050002A01D1DE
:1026E000816270478161FCE703689A69920701D5AE
:1026F00000229A6203689A69D20703D49A69012179
:102700000A439A6170470000F0B5059C0568686847
:10271000660D8027FF003740054E3E43B0438905D4
:10272000890D120411430B43234303436B60F0BD37
:10273000FF63FF0370B504000E00150003689B697A
:10274000DB0619D523689A69920617D4731CF9D051
:10275000FFF79EFE401BB04201D8002EF2D1636C01
:102760002022134363644123E25400232232A35402
:10277000023AA35401201AE0002018E01022DA6186
:1027800023682025DD612000FFF7AEFF2268536833
:1027900007490B405360636C042213436364412375
:1027A000E55400233E32A354023AA354012070BDE5
:1027B00000E800FE70B504000D00160023689B6958
:1027C0009B071CD4320029002000FFF7B3FF00282C
:1027D00017D16B1CF2D0FFF75BFE801BA84201D81B
:1027E000002DEBD1636C2022134363644123E25438
:1027F00000232232A354023AA354012000E0002017
:1028000070BD0120FCE7F8B506000C0017001D00A4
:1028100033689B6923401B1B5A425341BB4216D16C
:102820006B1CF5D0FFF734FE069BC01AA84201D8F6
:10283000002DEDD1736C2022134373644123F254B5
:1028400000232232B354023AB354012000E00020A6
:10285000F8BD70B505000C0016002B689B699B063F
:102860001AD4320021002800FFF764FF002815D198
:10287000FFF70EFE801BA04201D8002CEDD16B6C3F
:10288000202213436B644123EA5400232232AB54C9
:10289000023AAB54012070BD0020FCE70120FAE7AA
:1028A00070B504000D00160023689B695B0733D4E4
:1028B000320029002000FFF73DFF00282ED12368B9
:1028C0009A69920611D4FFF7E3FD801BA84201D854
:1028D000002DE9D1636C2022134363644123E25449
:1028E000013B0022E254012070BD9A69520702D5D3
:1028F000228D002AF8D12022DA6121684B6808482D
:1029000003404B6000236364412162542232A3548C
:10291000023AA3540120E7E70020E5E70120E3E7BE
:1029200000E800FE10B5041E59D04123C35C002B03
:1029300043D041232422E2542268136801218B43AF
:1029400013602268274B61680B401361226893680B
:1029500025490B409360E368012B34D0226884231F
:102960001B02A1680B439360E368022B32D02268FC
:1029700051681E4B0B4353602268D3681A490B40C1
:10298000D360236962691343A26912022168134369
:10299000CB602268E369216A0B43136022681368E5
:1029A00001210B4313600023636441221F31A154B2
:1029B00023630132A354002010BD40330022C254CF
:1029C00002F0EAFAB5E7226880231B02A1680B43F4
:1029D0009360C9E72368802212015A60C7E701208B
:1029E000EAE7C046FFFFFFF0FF7FFFFF0080000225
:1029F000F0B585B00500039117001E004123C35CAC
:102A0000202B00D099E02033C35C012B00D197E04C
:102A100040230122C254FFF73BFD040080210090B7
:102A20001923012209022800FFF7EDFE002800D03B
:102A300088E041232122EA540133113AEA54002369
:102A40006B646F626E856B636B8D9BB2FF2B0BD9D2
:102A5000FF232B857F3B3F4A00925B04FF220399B3
:102A60002800FFF751FE18E06A8D92B22A85802374
:102A7000D2B2384900919B0403992800FFF744FE25
:102A80000BE06A8D92B22A858023D2B20021009198
:102A90009B0403992800FFF737FE6B8D9BB2002B38
:102AA00034D022000A992800FFF784FE00284BD179
:102AB0002B686A6A12789A626B6A01336B626B8D5B
:102AC000013B9BB26B852B8D013B9BB22B856A8DA5
:102AD00092B2002AE1D0002BDFD100940A9B0022A1
:102AE00080212800FFF78FFE00282FD16B8D9BB22D
:102AF000FF2BC6D9FF232B857F3B002200925B046E
:102B0000FF3203992800FFF7FFFDC6E722000A996C
:102B10002800FFF79EFE00281AD12B682022DA61D8
:102B200029684B680C4C23404B604123EA54002336
:102B30002232AB54023AAB5400E0022005B0F0BDA3
:102B40000220FBE70120F9E70120F7E70120F5E784
:102B50000120F3E70020008000E800FEF0B585B01A
:102B60000500039117001E004123C35C202B00D0F9
:102B700099E02033C35C012B00D197E04023012270
:102B8000C254FFF785FC0400802100901923012224
:102B900009022800FFF737FE002800D088E0412313
:102BA0002222EA540133123AEA5400236B646F6222
:102BB0006E856B636B8D9BB2FF2B0BD9FF232B852F
:102BC0007F3B3F4A00925B04FF2203992800FFF7F6
:102BD0009BFD18E06A8D92B22A858023D2B23849D3
:102BE00000919B0403992800FFF78EFD0BE06A8D8E
:102BF00092B22A858023D2B2002100919B040399CE
:102C00002800FFF781FD6B8D9BB2002B34D0220092
:102C10000A992800FFF744FE00284BD12B685B6A15
:102C20006A6A13706B6A01336B622B8D013B9BB236
:102C30002B856A8D013A92B26A856A8D92B2002A1A
:102C4000E1D0002BDFD100940A9B002280212800D4
:102C5000FFF7D9FD00282FD16B8D9BB2FF2BC6D972
:102C6000FF232B857F3B002200925B04FF320399F8
:102C70002800FFF749FDC6E722000A992800FFF760
:102C8000E8FD00281AD12B682022DA6129684B68F8
:102C90000C4C23404B604123EA5400232232AB54B6
:102CA000023AAB5400E0022005B0F0BD0220FBE781
:102CB0000120F9E70120F7E70120F5E70120F3E71C
:102CC0000024008000E800FEF0B54123C35C202B07
:102CD00020D12033C35C012B1ED040240122025599
:102CE00041252423435506683368934333600668BF
:102CF00033680A4F3B4033600668336819433160DC
:102D000001680B6813430B602023435500230355D0
:102D1000002000E00220F0BD0220FCE7FFEFFFFFF3
:102D2000F0B54123C35C202B1ED12033C35C012BA3
:102D30001CD0402401220255412524234355066816
:102D400033689343336006683368094F3B40090298
:102D50001943316001680B6813430B60202343550E
:102D600000230355002000E00220F0BD0220FCE714
:102D7000FFF0FFFF10B5264BD9680C230B40082B42
:102D800042D00C2B11D0042B09D0214B5A68520B86
:102D900007231340013380200002984010BD1C4BD4
:102DA0001B68DB0632D51B48F8E78A0C0F2313405B
:102DB000194AD05C890D032211400131144BDB68A4
:102DC000DB030DD4124B1B68DB0613D54201121A2C
:102DD00093019B1ADB001B181802FDF795F9DDE73C
:102DE0004201121A93019B1ADB001B185802FDF7CF
:102DF0008BF9D3E74201121A93019B1ADB001B18CF
:102E00009802FDF781F9C9E70448C7E70448C5E718
:102E10000010024000093D003874000800127A00DA
:102E20000024F400F0B583B0041E00D15DE2CA4B6B
:102E3000DA680C251540DA688026760216400368A9
:102E4000DB0736D5082D2CD00C2D28D063688022C6
:102E5000520293424DD0A022D202934250D0BE4B98
:102E60001A68BE490A401A601A68802149020A405D
:102E70000192019A1A68BA490A401A606368002BE5
:102E80004AD0FFF705FB0700B34B1B689B0310D428
:102E9000FFF7FEFAC01B6428F6D9032026E2002EB5
:102EA000D4D0AD4B1B689B0303D56368002B00D1C6
:102EB0001EE223689B0764D5E368042D3CD00C2DEB
:102EC00038D0002B00D1AEE0A3490A680920824324
:102ED00013430B60FFF7DCFA06009F4B1B685B0790
:102EE00000D597E0FFF7D4FA801B0228F5D903201C
:102EF000FCE1994A116880235B020B431360BDE734
:102F0000954B19688022D2020A431A601968802200
:102F100052020A431A60B1E7FFF7BAFA07008E4B74
:102F20001B689B03C5D5FFF7B3FAC01B6428F6D90D
:102F30000320DBE1002EC4D1874A1268520702D574
:102F4000002B00D1D6E1844E726886490A4021697F
:102F500009020A437260326809218A4313433360CD
:102F6000FFF708FFF26812090F2313407E4AD35C73
:102F7000D8407E4B18600020FFF756FA002800D09A
:102F8000B4E12368DB062CD5002D5FD1724B1B68A2
:102F90009B0503D5A369002B00D1ADE16E4A5368B0
:102FA00073490B40216A0B43536053681B021B0A91
:102FB000E16909060B435360236A590B01318023F1
:102FC0001B028B40D16809090F220A4066498A5CBE
:102FD000D340664A13600020FFF726FA002800D08D
:102FE00084E123681B077DD56369002B67D05A4AAB
:102FF000136D01210B431365FFF74AFA0600564B88
:103000001B6D9B076ED4FFF743FA801B0228F6D98D
:1030100003206BE150494B68524A13402269120267
:1030200013434B60ADE74C4A136801218B43136097
:10303000FFF72EFA0600484B1B685B07A1D5FFF788
:1030400027FA801B0228F6D903204FE1A369002B41
:1030500022D0414A116880235B000B431360FFF7C5
:1030600017FA06003C4B1B689B0506D4FFF710FAC5
:10307000801B0228F6D9032038E1374A53683C49BF
:103080000B40216A0B43536053681B021B0AE16922
:1030900009060B435360A4E72F4A136835490B40D8
:1030A0001360FFF7F5F906002B4B1B689B0598D5BD
:1030B000FFF7EEF9801B0228F6D9032016E1264A15
:1030C000136D01218B431365FFF7E2F90600224BD4
:1030D0001B6D9B0706D5FFF7DBF9801B0228F6D98D
:1030E000032003E123685B0700D48CE01A4B9B6B41
:1030F000DB001BD4184A916B80235B050B43936361
:1031000001261D4B1B68DB0512D5A36880225200E7
:10311000934235D0002B4BD10F4B1A6D15490A4005
:103120001A651A6D15490A401A652FE00026E8E76E
:10313000114A116880235B000B431360FFF7A8F965
:1031400007000D4B1B68DB05DFD4FFF7A1F9C01B9F
:103150006428F6D90320C9E000100240FFFFFEFFFB
:10316000FFFFFBFFFFE0FFFF4474000804000020A6
:10317000FF1FFFFFFFFEFFFF00700040FFFBFFFF90
:10318000614A116D80235B000B431365A368002B1C
:1031900028D0FFF77DF907005B4B1B6D9B0530D4F2
:1031A000FFF776F9C01B594B9842F5D903209DE0F3
:1031B000A022D200934209D0534B1A6D54490A40C1
:1031C0001A651A6D53490A401A65DFE74E4B196DAF
:1031D000013AFF3A0A431A65196D802252000A43E8
:1031E0001A65D3E7FFF754F90700474B1B6D9B05A2
:1031F00007D5FFF74DF9C01B444B9842F5D9032082
:1032000074E0012E1AD0636A002B00D176E00C2DF9
:103210004FD0022B18D03C4A13683F490B40136033
:10322000FFF736F90400384B1B689B013FD5FFF7C9
:103230002FF9001B0228F6D9032057E0324A936B7E
:1032400036490B409363DEE72F4A136832490B403F
:103250001360FFF71DF905002B4B1B689B0106D57A
:10326000FFF716F9401B0228F6D903203EE0264955
:10327000CB682B4A1340A26AE06A0243206B0243E8
:103280001343CB600A6880235B0413430B60FFF792
:10329000FFF804001C4B1B689B0106D4FFF7F8F8ED
:1032A000001B0228F6D9032020E000201EE00020A9
:1032B0001CE0012B24D0144BDA6880235B021340FE
:1032C000A16A8B4201D0012010E0F0239B03134040
:1032D000E16A8B4201D0012008E0C0231B041A40A0
:1032E000236B9A420ED0012000E0012003B0F0BD14
:1032F0000120FBE70120F9E70120F7E70020F5E7CF
:103300000120F3E70020F1E70010024088130000DD
:10331000FFFEFFFFFFFBFFFFFFFFFFFEFFFFFFEFD3
:10332000FFFF02FF70B504000D00002800D1BAE0D5
:103330005F4B1A68012313408B420BD25C490B6828
:10334000012293432B430B600B681A40AA4201D021
:103350000120A9E023689B0706D5564AD368F021CF
:103360008B43A1680B43D3602368DB0764D5636894
:10337000022B09D0032B29D0012B2DD04D4A1268E6
:10338000920506D401208FE04A4A1268920300D4C5
:103390008BE04849CA68032082431343CB60FFF7A0
:1033A00077F806006368022B1CD0032B28D0012B72
:1033B00034D0404BDB680C221A423DD0FFF768F84E
:1033C000801B3D4B9842F4D903206DE0394A1268C6
:1033D0009201DED4012067E0364A12685207D8D441
:1033E000012061E0334BDA680C231340082B23D013
:1033F000FFF74EF8801B304B9842F3D9032053E07F
:103400002C4BDA680C2313400C2B15D0FFF740F837
:10341000801B294B9842F3D9032045E0254BDA68FD
:103420000C231340042B07D0FFF732F8801B224BEC
:103430009842F3D9032037E01D4B1A68012313404B
:10344000AB420BD91A490B68012293432B430B6003
:103450000B681A40AA4201D0012025E023685B07CF
:1034600006D5144AD36815490B40E1680B43D36075
:1034700023681B0707D50F49CB68114A13402269FF
:10348000D2001343CB60FFF775FC0A4BDA681209D0
:103490000F2313400B4AD35CD8400B4B186000201D
:1034A000FEF7C2FF00E0012070BD0120FCE7C0462E
:1034B000002002400010024088130000FFF8FFFFC8
:1034C000FFC7FFFF4474000804000020014B186888
:1034D0007047C0460400002010B5FFF7F7FF044B0B
:1034E000DA68120A07231340024AD35CD84010BDA1
:1034F000001002405474000810B5FFF7E7FF044BBA
:10350000DA68D20A07231340024AD35CD84010BDC0
:10351000001002405474000870B5040003689B0654
:103520004DD5604B9B6BDB0000D57CE05D4A916B19
:1035300080235B050B43936301255B4B1B68DB0515
:1035400000D472E0574B1968C0239B03194062688E
:1035500013408B4206D0C0239B02110019409942B0
:1035600000D177E04F4B1B6DC02189020B4015D075
:103570000A409A4212D023689B060FD5494B186D1A
:103580004A4A02401E6D8021090331431965196DB5
:10359000474E314019651A65C30562D46368C0227D
:1035A00092021900114091426AD03E490B6DC0222F
:1035B00092026068024013430B65012D6AD02368B4
:1035C000DB0706D5374AD36C03218B43A1680B4335
:1035D000D36423689B0706D5324AD36C0C218B43F6
:1035E000E1680B43D36423685B0706D52D4AD36C8F
:1035F00030490B4021690B43D36423681B0706D570
:10360000284AD36C2C490B4061690B43D36423686F
:103610001B0645D5234AD36C28490B40A1690B43AF
:10362000D364002070BD002587E71F4A11688023FE
:103630005B000B431360FEF72BFF06001A4B1B6861
:10364000DB0500D57EE7FEF723FF801B6428F5D954
:103650000320E7E7134B1B689B0300D482E701209C
:10366000E0E7FEF715FF06000E4B1B6D9B0595D49A
:10367000FEF70EFF801B124B9842F5D90320D1E7CD
:1036800008490A680F480240C020800303401343E2
:103690000B608AE70A008B6B0B490B4093638EE744
:1036A0000020BFE70010024000700040FFFFFCFF59
:1036B000FFFFF7FFFFF3FFFFFFCFFFFFFFFFF3FF6A
:1036C00088130000FFFFCFFFFFFFFFEF70B504007E
:1036D0000268D368A0218B43D360FEF7D9FE0500B2
:1036E0002368DB689B0608D4FEF7D2FE401BFA2352
:1036F0009B009842F4D9032000E0002070BD70B513
:1037000004000368DA68520601D5002070BD01226A
:103710005242DA60FEF7BCFE05002368DB685B06F8
:1037200008D4FEF7B5FE401BFA239B009842F4D95B
:103730000320EBE70020E9E770B5041E63D02123E6
:10374000C35C002B40D021230222E2542368C832FC
:103750005A622368773A5A622000FFF7D0FF051EAD
:1037600038D12268936829490B40936021688A68A0
:10377000636820690343A069034313438B60236894
:10378000E2681A6121680B69A268120413430B6195
:103790002268D36880218B43D3602268D36C7D3943
:1037A0008B43D3642168CB6CE269606902431343A5
:1037B000CB6423689B689B0615D52368FF225A6259
:1037C0002123FE3AE2540CE020330022C25401F0DF
:1037D00013FCB8E72368FF225A622123FB3AE25424
:1037E0000125280070BD2000FFF770FF0028E4D0FD
:1037F0002368FF225A622123FB3AE254013B002254
:10380000E2540125EDE70125EBE7C046BFFF8FFF3E
:10381000F8B506000C0017001D0033689B682340B4
:103820001B1B5A425341BB423BD06B1CF5D0FEF7E9
:103830002FFE069BC01AA84201D2002DEDD132689E
:103840005368E0218B43536082235B0072689A4285
:103850000CD080239B01B26A9A4216D051230122D8
:10386000F254013B0022F25403201BE0B368802293
:103870001202934203D08022D2009342E9D13268EF
:10388000136840218B431360E3E7326813680649ED
:103890000B4013603268116880239B010B43136057
:1038A000DCE70020F8BDC046FFDFFFFF10B582B0A7
:1038B0000400822040006368834206D05120205CCF
:1038C000052811D0002002B010BD00920B0000228C
:1038D00080212000FFF79CFF0028F4D0636D202298
:1038E000134363650320EEE700920B0000220121E1
:1038F0002000FFF78DFF0028E5D0636D20221343E1
:1039000063650320DFE730B583B004008220400008
:103910006368834218D0822040006368834231D1BB
:103920008023DB00A06898421DD000920B0000228B
:1039300080212000FFF76CFF00282CD0636D20222F
:1039400013436365032026E0A368802000028342BE
:1039500003D08020C0008342DDD120680368402569
:10396000AB430360D7E700920B0000220121200047
:10397000FFF74EFF00280ED0636D202213436365CE
:10398000032008E000920B00002201212000FFF735
:103990003FFF002801D103B030BD636D20221343E7
:1039A00063650320F7E7000010B5041E3BD0002339
:1039B00083625133C35C002B2FD051220223A354C6
:1039C00021680B68402083430B606368A1680B4348
:1039D000E1680B4321690B4361690B438021890036
:1039E000A06901400B43E1690B43216A0B43216845
:1039F000A06A03430B60618B04230B402168606A5B
:103A000003434B602168CB6908480340CB61002326
:103A100063650133A354002010BD50330022C2540B
:103A200001F0FAFAC9E70120F6E7C046FFF7FFFF09
:103A3000F0B585B00400019116001F005023C35C4F
:103A4000012B00D1BFE050230122C254FEF720FD1C
:103A500005005123E35C012B08D0022051230122F1
:103A6000E254013B0022E25405B0F0BD0199002967
:103A700000D19AE0002E00D199E050330322E254A5
:103A8000002363652163A686E686A363A387E38795
:103A90006364236480231B02A2689A421DD02368BA
:103AA0001A68520603D41A6840210A431A60802318
:103AB0001B01E2689A4217D06368002B01D0012EE7
:103AC00048D1236B1B7822681373236B0133236364
:103AD000E38E013B9BB2E3863CE0226811688023C1
:103AE000DB010B431360DAE76368002B01D0012E82
:103AF00014D12368226B1288DA60236B02332363AC
:103B0000E38E013B9BB2E38608E0FEF7C1FC401B5D
:103B1000B84201D37B1C4CD1002F4CD0E38E9BB21A
:103B2000002B2AD023689A689207EED5226B128860
:103B3000DA60236B02332363E38E013B9BB2E3869F
:103B4000ECE7FEF7A5FC401BB84201D37B1C34D147
:103B5000002F34D0E38E9BB2002B0ED023689A68DE
:103B60009207EED5226B12781A73236B013323630D
:103B7000E38E013B9BB2E386ECE72A00390020008C
:103B8000FFF794FE002801D020236365A368002B73
:103B900006D103932368DA6803929B680393039B1F
:103BA000636D002B0DD1002058E7012056E701205E
:103BB00054E7032052E7032050E703204EE7032099
:103BC0004CE701204AE702204EE7F0B585B004003B
:103BD0000E0001921D005023C35C012B00D108E1AF
:103BE00050230122C254FEF753FC07005123E35C2B
:103BF000DBB26268012B14D0822149008A4208D0CE
:103C0000022051230122E254013B0022E25405B07C
:103C1000F0BDA268002A00D0DDE0042B01D0022014
:103C2000EFE7002E00D1D8E0019B002B00D1D6E0B9
:103C3000002D00D1D5E05123E35C042B02D05123A9
:103C40000522E25400236365019AA263E587A587F4
:103C50002663E586A5862364636423681A68520692
:103C600003D41A6840210A431A6080231B01E268CA
:103C70009A4211D06368002B01D0012D0AD1236B29
:103C80001B7822681373236B01332363E38E013B9C
:103C90009BB2E386012569E06368002B01D0012D0A
:103CA0000AD12368226B1288DA60236B0233236304
:103CB000E38E013B9BB2E38601251BE023689A68F3
:103CC000D2070ED5E28F92B2002A0AD0DB68A26B2F
:103CD0001380A36B0233A363E38F013B9BB2E387A3
:103CE0000125FEF7D5FBC01B0A9B984202D3013386
:103CF00000D078E0E38E9BB2002B03D1E38F9BB220
:103D0000002B51D023689A689207D7D5E28E92B2E1
:103D1000002AD3D0012DD1D1226B1288DA60236B17
:103D200002332363E38E013B9BB2E3860025C5E7A4
:103D300023689A68D2070ED5E28F92B2002A0AD081
:103D4000DB68A26B1370A36B0133A363E38F013BAA
:103D50009BB2E3870125FEF79BFBC01B0A9B9842A1
:103D600001D3013341D10A9B002B40D0E38E9BB29B
:103D7000002B03D1E38F9BB2002B15D023689A68E8
:103D80009207D5D5E28E92B2002AD1D0012DCFD1A3
:103D9000226B12781A73236B01332363E38E013B8A
:103DA0009BB2E3860025C3E73A000A992000FFF79B
:103DB0007DFD002803D020236365012021E7A3684F
:103DC000002B00D01DE703932368DA6803929B68F9
:103DD0000393039B15E7022013E7012011E701205D
:103DE0000FE701200DE703200BE7032009E703207D
:103DF00007E702200BE70000F0B585B004000D00D6
:103E000016001F0082235B0042689A4217D050239D
:103E1000E35C012B00D19CE050230122E254FEF729
:103E200037FB03905123E35C012B14D00220512374
:103E30000122E254013B0022E25405B0F0BD836848
:103E4000002BE4D151330422C254009733000A00FE
:103E5000FFF7BBFEF1E7002D6DD0002E6DD0503383
:103E60000422E25400236365A563A687E6872363E3
:103E7000A386E3862364636480231B02A2689A42BC
:103E80000BD023681A68520603D41A6840210A43EB
:103E90001A60E368002B10D02CE0226813682E49CA
:103EA0000B401360EDE7FEF7F3FA039BC01AB8422C
:103EB00001D37B1C43D1002F43D0E38F9BB2002B57
:103EC0002BD023689A68D207EDD51B7BA26B1370A9
:103ED000A36B0133A363E38F013B9BB2E387ECE762
:103EE000FEF7D6FA039BC01AB84201D37B1C2AD135
:103EF000002F2AD0E38F9BB2002B0ED023689A6844
:103F0000D207EDD5DB68A26B1380A36B0233A363EA
:103F1000E38F013B9BB2E387ECE7039A3900200073
:103F2000FFF7F1FC002801D020236365636D002BAF
:103F30000DD100207BE7012079E7012077E70320FE
:103F400075E7032073E7032071E703206FE7012083
:103F50006DE7022071E7C046FFBFFFFF03688022C4
:103F6000D205904205D0124A904202D0114A9042A6
:103F700003D1702293434A6813438022D2059042B2
:103F800005D00B4A904202D00A4A904203D10A4A15
:103F90001340CA681343802293430A6913430360A2
:103FA0008B68C3620B688362012343617047C0461C
:103FB0000008014000140140FFFCFFFF70B5041E23
:103FC00014D03923C35C002B0AD039250223635552
:103FD000211D2068FFF7C2FF01236355002070BD3B
:103FE00038330022C25401F07DF8EEE70120F6E7F5
:103FF000F0B53823C35C012B1BD0382601239C4627
:10400000835539270133C355026854689368702576
:10401000AC430D682C438025AB431D004B682B43FC
:104020005460026893606346C355002383550020A3
:10403000F0BD0220FCE70000D0B5040001688368F1
:104040000269134342691343C26913430A68C048B3
:10405000024013430B6022685368BE490B40E1687D
:104060000B435360A1692268BB4B9A4201D0236A7B
:1040700019439368B94803400B4393602268B84BD7
:104080009A4216D0B74B9A4227D0B34B9A4239D0B6
:104090001023B1498A4257D080221202E16991422D
:1040A00000D18CE0082B00D949E19B00AE4AD358DF
:1040B0009F46AE4BD96C03230B40012B09D0002B3C
:1040C00005D0022B3AD0032B05D01023E1E70123C2
:1040D000DFE70423DDE70823DBE7A44BD96C0C23DF
:1040E0000B40042B0AD005D9082B29D00C2B07D163
:1040F0000823CEE7002B03D10023CAE70423C8E737
:104100001023C6E7994BDB6CC02109010B408021CD
:10411000C9008B420ED009D9802109018B4211D0F0
:10412000C02109018B4207D10823B2E7002B03D13C
:104130000023AEE70423ACE71023AAE70223A8E795
:104140000223A6E70223A4E7022B2DD007D9042BD4
:1041500030D0082B00D0F5E08020000207E0002BD3
:1041600000D0EFE0FFF7B8F9002800D1ECE062687A
:1041700053009B18834200D9E8E01303834200D226
:1041800006E1070E0602500800218019794100233C
:10419000FCF746F8764BC218764B9A4200D9F9E004
:1041A0002368D860002085E0704B1B68DB0604D4D0
:1041B0007148DCE7FEF7DEFDD6E77048D7E7082B4D
:1041C00062D89B006E4AD3589F46FFF785F940009E
:1041D00063685B08C0186168FBF796FF03041B0C5B
:1041E000002068491A00103A8A4200D9D4E00F2210
:1041F000190091435B08083A13400B432268D360CF
:1042000058E0FFF779F9400063685B08C0186168FF
:10421000FBF77AFF03041B0C0020E2E7534B1B68FB
:10422000DB060BD563685808574B9C4660446168B1
:10423000FBF76AFF03041B0C0020D2E763685808F1
:10424000524B9C4660446168FBF75EFF03041B0C05
:104250000020C6E7FEF78EFD400063685B08C018CB
:104260006168FBF751FF03041B0C0020B9E763688A
:10427000580880235B029C4660446168FBF744FF5A
:1042800003041B0C0020ACE701200023A9E7FFF783
:1042900023F963685B08C0186168FBF735FF030406
:1042A0001B0C002037491A00103A8A4200D975E0E9
:1042B0002268D360002323666366D0BDFFF71CF934
:1042C00063685B08C0186168FBF71EFF03041B0CE2
:1042D0000020E7E7254B1B68DB060BD56368580811
:1042E000264B9C4660446168FBF70EFF03041B0CE1
:1042F0000020D7E7636858081F4B9C4660446168FC
:10430000FBF702FF03041B0C0020CBE7FEF732FD96
:1043100063685B08C0186168FBF7F6FE03041B0CBA
:104320000020BFE76368580880231B029C46604456
:104330006168FBF7E9FE03041B0C0020B2E70120D3
:104340000023AFE70120B5E70020B3E70120B1E784
:10435000F369FFEFFFCFFFFF00480040FFF4FFFFCE
:104360000038014000440040F07300080010024093
:1043700000FDFFFFFFFC0F000024F40000093D00DA
:1043800014740008EFFF000000127A000048E801F2
:1043900001208FE701208DE701208BE7012089E7CD
:1043A000436ADB0706D5026853682C490B40816AD3
:1043B0000B435360436A9B0706D50268536828493C
:1043C0000B40C16A0B435360436A5B0706D5026822
:1043D000536824490B40016B0B435360436A1B072E
:1043E00006D50268536820490B40416B0B4353606C
:1043F000436ADB0606D5026893681C490B40816B53
:104400000B439360436A9B0606D50268936818497C
:104410000B40C16B0B439360436A5B060BD502688C
:10442000536814490B40016C0B43536080235B03BA
:10443000026C9A420AD0436A1B0606D5026853688A
:104440000D490B40816C0B43536070470268536801
:104450000A490B40416C0B435360ECE7FFFFFDFF43
:10446000FFFFFEFFFFFFFBFFFF7FFFFFFFEFFFFFF1
:10447000FFDFFFFFFFFFEFFFFFFFF7FFFFFF9FFFE4
:10448000F0B5C64600B506000C0017009846069D1C
:104490003368DB6923401B1B5A425341BB421CD18A
:1044A0006B1CF5D0FDF7F4FF4346C01AA84201D8B3
:1044B000002DEDD1326813680A490B401360326851
:1044C0009368A331FF318B43936020237367B367F5
:1044D00050330022F254032000E0002004BC904638
:1044E000F0BDC0465FFEFFFFF0B585B004000E00D2
:1044F00017001D00436F202B5FD1002960D0002AD8
:1045000060D080235B0182689A4218D07023E35CFC
:10451000012B59D070230122E2540023E367213399
:104520006367FDF7B5FF03905023E7520233E7526C
:1045300080235B01A2689A4208D0002716E0036935
:10454000002BE3D1CB07E1D5012037E02369002B15
:1045500021D000270AE03B882268DB05DB0D93624F
:1045600002375222A35A013B9BB2A3525223E35A71
:104570009BB2002B12D00095039B002280212000CB
:10458000FFF77EFF002821D1002EE4D03278236887
:104590009A620136E5E737000026E7E70095039BBE
:1045A000002240212000FFF76BFF002810D12023BC
:1045B000636750330022E25400E0022005B0F0BDF2
:1045C0000120FBE70120F9E70220F7E70320F5E7E8
:1045D0000320F3E730B583B004000023C367FDF781
:1045E00057FF050023681B681B070CD423681B6852
:1045F0005B0715D420236367A36750330022E2547E
:10460000002003B030BD80210C4B0093030000223A
:1046100089032000FFF734FF0028E7D00320F0E7EC
:104620008021064B00932B000022C9032000FFF7D6
:1046300027FF0028DED00320E3E7C046FFFFFF018D
:1046400010B5041E2ED0436F002B21D024236367A6
:104650002268136801218B4313602000FFF7ECFCF4
:10466000012814D0636A002B18D1226853680E49C0
:104670000B405360226893682A218B439360226821
:10468000136829390B4313602000FFF7A3FF10BD07
:1046900070330022C25400F035FDD7E72000FFF749
:1046A0007FFEE2E70120F2E7FFB7FFFFF0B58BB036
:1046B0001422002105A800F006FE2E4BD96A042220
:1046C0001143D962D96A0A400192019AD96A8022BB
:1046D0001143D962D96A0A400292029ADA6A012524
:1046E0002A43DA62DA6A2A400392039AD96A0222DA
:1046F0001143D962DB6A1A400492049B1E4CA02726
:10470000FF05002221003800FDF7E8FF1B4E0022C4
:104710001B493000FDF7E2FF05940695079500243C
:10472000089405A93800FDF713FF062305930694A6
:10473000079405A93800FDF70BFF124B059306956A
:104740000795089405A93000FDF702FF162305938D
:104750000694079405A93000FDF7FAFE0823059397
:1047600006950794089405A93000FDF7F1FE0BB0FB
:10477000F0BDC04600100240098000000004005057
:10478000090700000107000070B50D001400087053
:10479000012304E0291900220A7001335BB2A3420D
:1047A000F8DB0520FDF77AFEA2B2FF2329000348BB
:1047B000FFF722FB0520FDF771FE70BD8C04002081
:1047C00030B583B0040006220021684600F07BFD6E
:1047D000A025ED05002201212800FDF77FFF06221C
:1047E0006946F220FFF7D0FF012201212800FDF7E2
:1047F00075FF6B465A7812021B78134323806B4671
:10480000DA7812029B78134363806B465A7912025E
:104810001B791343A38003B030BD70B584B006008C
:104820000322002103A800F04EFD02AC0322002168
:10483000200000F048FD0322002101A800F043FD04
:1048400000236A461380A025ED05002201212800DF
:10485000FDF744FF022203A90920FFF795FF02227A
:1048600069460D20FFF790FF032201A98520FFF77D
:104870008BFF012201212800FDF730FF00220121DA
:104880002800FDF72BFF032221001120FFF77CFFFA
:10489000012201212800FDF721FF62781202A3788E
:1048A00013433380002201212800FDF717FF032264
:1048B00021001520FFF768FF012201212800FDF7E4
:1048C0000DFF62781202A378134373800022012146
:1048D0002800FDF703FF032221001920FFF754FFF2
:1048E000012201212800FDF7F9FE62781202A37867
:1048F0001343B38004B070BD10B582B001AC20701A
:1049000061700520FDF7CAFDFF2302222100044843
:10491000FFF78EF80520FDF7C1FD02B010BDC046BF
:104920008C040020F0B5D646474680B589B0804655
:104930008A4606AF062200211A20684400F0C3FC14
:1049400004AC08220021200000F0BDFCF5233B70E0
:1049500002AE08220021300000F0B5FCF3237B708A
:10496000FF250095EB3B19226A4480212248FEF77F
:104970003FF800950823320080211F48FEF7EEF82B
:1049800030780002B378C018FBF72CFDFCF72EFB43
:104990001A4A1B4BFBF770FD00221A4BFBF76CFD0C
:1049A000194A1A4BFBF7DAFFFCF772FB5346186003
:1049B000009508233A0080210F48FEF719F800956A
:1049C0000823220080210C48FEF7C8F82278120242
:1049D000A378D21892B253019B1A9B009A18D3174E
:1049E0001B041B0C9B181B14063B4246138009B08A
:1049F0000CBC90469A46F0BD60030020D7A3703DE2
:104A00000AF765400000F03ECDCCCCCCCC6C4740E2
:104A100010B5C0B00400FF220021684600F053FC2E
:104A20002100684601F0D6F8FF23FF2269460248BC
:104A3000FFF75AFD40B010BDAC03002030B587B081
:104A40006846064903000A0032CA32C312CA12C3BA
:104A500012781A70FFF7DCFF07B030BDDC74000875
:104A600070B584B0060001AC09220021200000F0DE
:104A70002AFCC0232370A025ED0500220121280077
:104A8000FDF72CFE0F213120FFF736FF0C212D20E2
:104A9000FFF732FF0E212C20FFF72EFF00212E20E2
:104AA000FFF72AFF00212F20FFF726FF8221382061
:104AB000FFF722FF012201212800FDF70FFE00224F
:104AC00001212800FDF70AFE0520FDF7E7FCFF2382
:104AD000082221000D48FFF78FF90520FDF7DEFCC5
:104AE000012201212800FDF7F9FD6378E52B06D0AE
:104AF0000748FFF78DFF0123337004B070BD0548F0
:104B0000FFF786FF00233370F7E7C0468C040020D0
:104B1000F47400080875000870B584B0060002AD92
:104B200005220021280000F0CEFB05220021684666
:104B300000F0C9FB1D4C002201212000FDF7CEFD35
:104B400000217E20FFF7D8FE02217420FFF7D4FE5B
:104B500002217E20FFF7D0FE012201212000FDF777
:104B6000BDFD002201212000FDF7B8FD05226946A8
:104B70007F20FFF709FE052229000120FFF704FE30
:104B8000012201212000FDF7A9FD6B78FA2B06D048
:104B90000748FFF73DFF0123337004B070BD05489F
:104BA000FFF736FF00233370F7E7C04600040050DC
:104BB0001C7500083075000810B50248FFF728FF83
:104BC00010BDC0464475000810B51548154B03606C
:104BD000154B4360002383600122C260036143617F
:104BE0008361C3610362FDF79DFE00280CD10021A3
:104BF0000B48FEF769F800280CD100210848FEF7A1
:104C00008FF8002809D110BD0848FFF701FFFFF712
:104C1000D3FFECE7FFF7D0FFEFE7FFF7CDFFF2E7B9
:104C20006003002000540040FE0900205475000875
:104C300010B51048104B036082235B0043600023D3
:104C40008360C36002220261013A426180229200C5
:104C50008261F93AFF3AC2610362436283620733B9
:104C6000C362FEF7A1FE002800D110BDFFF7A4FF2C
:104C7000FBE7C0468C0400200030014010B50E4810
:104C80000E4B036082235B00436000238360C3609C
:104C900003614361802292008261C36103624362C7
:104CA00083620733C362FEF77FFE002800D110BD88
:104CB000FFF782FFFBE7C0460803002000380040F2
:104CC00010B50C480C4B0360E1235B0243600023EA
:104CD0008360C36003610C2242618361C36103622C
:104CE0004362FFF7ADFC002800D110BDFFF764FF61
:104CF000FBE7C046AC0300200038014010B50A486D
:104D00000A4B0360002343607F2282608032C260CE
:104D1000036143618361C361FEF70EFD002800D18A
:104D200010BDFFF749FFFBE72C04002000280040DE
:104D300000B583B008220021684600F0C4FA10488C
:104D4000104B0360104B436000238360FA22520132
:104D5000C2604361FFF732F900280AD100230093B3
:104D6000019369460648FFF743F9002804D103B0D0
:104D700000BDFFF721FFF1E7FFF71EFFF7E7C04691
:104D800050040020001000400F27000000B59BB029
:104D9000342200210DA800F096FA1422002108A860
:104DA00000F091FA1C22002101A800F08CFA1F49A2
:104DB0000B681F4A1A4080231B0113430B600A2310
:104DC0000D93093B10931022119212930023169316
:104DD0000DA8FEF727F800281FD10F2308930E3BDC
:104DE000099300230A93E022D2000B920C93002136
:104DF00008A8FEF797FA002812D129230193273B30
:104E000003930023069380239B02029301A8FEF7DD
:104E100083FB002807D11BB000BDFFF7CDFEDCE708
:104E2000FFF7CAFEE9E7FFF7C7FEF4E700700040AE
:104E3000FFE7FFFFF0B5DE4657464E46C0B590B0DF
:104E4000FDF70AFBFFF7A2FFFFF730FCFFF7BCFE00
:104E5000FFF7EEFEFFF712FFFFF732FFFFF74EFFFF
:104E6000FFF766FFFFF7EAFD06E0404C2000FFF782
:104E7000F7FD601CFFF750FE3C4B1B78002BF4D174
:104E80003A4B5B780993002BEFD1363302AA944654
:104E9000634400221A8000230E93063200210CA8DE
:104EA00000F011FA062200210AA800F00CFA53E0E3
:104EB0000CAF3800FFF784FC0AAD2800FFF7ADFC0B
:104EC0000023FA5E02217B5E0420395E0026A85F83
:104ED0000226AF5F0426AE5F254D03960297019030
:104EE00000912449280000F055FE2800FFF790FDAE
:104EF0006420FDF7D3FA0134E4B2092CD8D90CAB05
:104F000000229D5E02229F5E04269E5F0AAB002166
:104F10005A5E914602215A5E924604229B5E9B464F
:104F2000134C362302AA944663441B8806930E98BA
:104F3000FCF75CF8049005915B460393534602939B
:104F40004B46019300963B002A000B49200000F0DD
:104F500021FE2000FFF75CFD0EA9362002AB9C4627
:104F60006044FFF7DFFC099CC7E7C0460000002053
:104F7000F40100206475000884750008054B5A6B25
:104F800001210A435A63996B802252050A439A63AE
:104F90007047C0460010024010B586B004001422CD
:104FA000002101A800F08FF92268104B9A4201D02D
:104FB00006B010BD0E4CE26A02231A43E262E26AB6
:104FC00013400093009BC0230193AE3B0293113B1F
:104FD000039303220492059301A90648FDF7B8FA4A
:104FE000A26B80239B031343A363E1E700540040BB
:104FF00000100240000400500268054B9A4200D0A5
:105000007047044A116D8023DB020B431365F7E7F9
:10501000002800400010024070B588B0040014223F
:10502000002103A800F04FF923682A4A934204D0D4
:10503000294A934227D008B070BD284B596B802273
:1050400052010A435A63DA6A01242243DA62DB6AB4
:1050500023400193019B20230393022604961D3BCA
:105060000693A025ED0503A92800FDF771FAC023DA
:1050700003930496059406940023079303A928003C
:10508000FDF766FAD7E7154B996B8022D2010A43E8
:105090009A63DA6A02242243DA62DB6A23400293CB
:1050A000029B80239B0103930494032606960C4DD8
:1050B00003A92800FDF74CFAC0231B0203930494B4
:1050C0000123059306960023079303A92800FDF703
:1050D0003FFAB0E7003001400038004000100240C5
:1050E000000400500268054B9A4200D07047044A01
:1050F000936B10210B439363F8E7C0460010004008
:105100000010024010B586B004001422002101A84E
:1051100000F0D9F82268114B9A4201D006B010BDB8
:105120000F4B596B8022D2010A435A63D96A01227C
:105130001143D962DB6A1A400092009BC023DB0056
:105140000193022302930133049301330593A020BA
:1051500001A9C005FDF7FCF9E0E7C04600380140B1
:10516000001002407047FEE77047704710B5FDF72A
:1051700087F910BD10B503000B4A1268002A08D049
:10518000094A1068C3186A46934206D8064A136053
:1051900010BD054A05491160F2E700F061F80C23E3
:1051A000036001204042F3E7F4020020E8040020FD
:1051B000104B1968802252000A431A60DA680E49BF
:1051C0000A40DA601A680D490A401A609A6801219B
:1051D0008A439A601A680A490A401A60DA680949DB
:1051E0000A40DA6000221A61074B802212059A6099
:1051F0007047C046001002400C40FF88F6FFF6FEE4
:10520000FFFFFBFFFFFF02FF00ED00E00D488546BA
:10521000002103E00C4B5B58435004310B480C4B0E
:1052200042189A42F6D30B4A02E00023136004327C
:10523000094B9A42F9D3FFF7BBFF00F017F8FFF7CD
:10524000F9FDFEE700200020207800080000002083
:10525000D8010020D8010020E8040020FEE700006B
:10526000014B18687047C0460800002070B5002642
:105270000C4D0D4C641BA410A64209D1002602F06F
:10528000A9F80A4D0A4C641BA410A64205D170BDB2
:10529000B300EB5898470136EEE7B300EB58984758
:1052A0000136F2E718780008187800081878000826
:1052B0001C780008002310B59A4200D110BDCC5CC8
:1052C000C4540133F8E703001218934200D1704729
:1052D00019700133F9E7F0B58BB014001D1E129957
:1052E00053DA802424061B191D0014002D230B7093
:1052F0002023149E03229E43462E07D03300453BB5
:1053000059424B411099013ACB18109309AB0493C1
:1053100008AB0393139B00920293109B220001930E
:105320002B0000F0E5FC0700472E02D1119BDB07A4
:1053300024D5109BFB180793462E14D13B78302BB5
:105340000CD10022002320002900FCF75BF8002884
:1053500004D10123109A9B1A139A1360139B079A86
:105360001B68D31807930022002320002900FCF7B4
:1053700049F8302200280DD0079B09933800099B7B
:10538000159ADB1B13600BB0F0BD0023AFE7591C6F
:1053900009911A70099B07998B42F8D3EEE7F0B593
:1053A000831C85B0019306000C0002702B2300299A
:1053B00001DA2D234C427370092C22DD02ABDD1D76
:1053C00020000A21FCF70AF86F1E303139702000E6
:1053D0000A21FBF71DFF040009280BDC023D3034D5
:1053E000019B2C7002AA07321800AA4204D8801B25
:1053F00005B0F0BD3D00E3E72A7801351A700133AE
:10540000F0E73023E418B370301DF470EFE70000CC
:10541000F0B595B00C000A920B931A9D099001F01B
:1054200047FA036818000C93FBF7E0FE0023129381
:1054300023680E900D930D99277E2B680722C905CE
:1054400045D59B1893431A0008322A601A685B6896
:10545000A264E3640122E56CA66C6B005B080F9309
:105460005242AC4B30000F99FCF720FF002830D19E
:105470000122A84B524230000F99FBF7D3FF0028BE
:1054800027D10022002330002900FBF7C1FF0028AC
:1054900003D023002D2243331A709F4D472F00D88D
:1054A0009E4D032300260D9A236101339A43226007
:1054B0000B9B13AA009321000A9B099800F0F4F9B2
:1054C000431C00D093E00120404215B0F0BD0733EB
:1054D000B8E732002B0030002900FCF7E7FE002877
:1054E00004D08F4D472FDCD88E4DDAE780230D99FD
:1054F0006268DB000B43511C43D10732626012AA81
:105500000021059211AA03922322236006910193A0
:1055100008A9636852180292009332002B00049786
:105520000998FFF7D8FE20233A0005009A43472A3E
:1055300007D1119BDA1C02DB6268934245DD023F12
:10554000FFB21199652F25D8200001393A0050305B
:105550001191FFF724FF129A060013182361012A04
:1055600002DC2268D20701D501332361232308AA74
:105570009B181B78002B9BD023002D2243331A70DD
:1055800096E7672F00D176E1472FB8D1002AB6D130
:105590000122B3E7662F19D1636800290CDD216170
:1055A000002B02D12268D20702D501335B18236198
:1055B000119B0026A365D9E7002B03D101222168A6
:1055C000114200D09A1C2261F2E76727119B129AC0
:1055D000934205DB22682361D207E9D50133E6E770
:1055E0000121002B01DC4918C91A5218EBE7226887
:1055F000530508D423692A000A9909980B9DA847E6
:10560000431C29D15FE7652F00D8E0E0A06CE16C76
:1056100000220023FBF7F6FE002834D00123424A83
:105620000A9909980B9DA847431C00D14BE7119B91
:10563000129A934202DB2368DB070DD50B9D0E9B6C
:105640000C9A0A990998A8470025431C00D13AE70B
:10565000129B013BAB420ADC23689B0700D508E1A3
:10566000139BE068984200DB2FE718002DE722002B
:1056700001231A320A9909980B9EB047431C00D1A6
:1056800021E70135E4E7119B002B2DDC0123264A9D
:105690000A9909980B9EB047431C00D113E7119B50
:1056A000002B05D1129B002B02D12368DB07D3D539
:1056B0000B9E0E9B0C9A0A990998B0470026431C32
:1056C00000D100E7119B5B42B34201DC129B92E7E1
:1056D000220001231A320A9909980B9FB847431CEC
:1056E00000D1F0E60136EDE7A36D129F9F4200DD89
:1056F0001F00002F08DD3B002A000A9909980B9E25
:10570000B047431C00D1DEE600230D93FB43DB17BB
:105710000F9318E0FFFFEF7FB4750008B075000825
:10572000BC750008B8750008C07500082200012388
:105730001A320A9909980B9EB047431C00D1C2E661
:105740000D9B01330D930F9BA66D0D9A3B40F31AF1
:105750009342EBDC119B129AAD19934210DB236844
:10576000DB070DD4129F119BBE1BFF1AB74200DD51
:105770003700002F0DDCFE43F31700250C931CE0CF
:105780000E9B0C9A0A9909980B9FB847431CE9D1C4
:1057900099E63B002A000A9909980B9DA847431CEB
:1057A000E9D190E6220001231A320A9909980B9E4A
:1057B000B047431C00D186E60135119A129B0C9923
:1057C0009B1A3A000A409B1AAB42EBDC44E7129B5F
:1057D000012B02DC01231A4232D001232A000A994C
:1057E00009980B9FB847431C00D16CE60E9B0C9A9E
:1057F0000A9909980B9F0135B847431C00D162E60E
:10580000A06CE16C129B00225F1E0023FBF7FAFDE7
:105810003B00002814D000250AE0220001231A32A0
:105820000A9909980B9FB847431C00D14BE60135F4
:10583000129B013BAB42F0DC220033005032DBE62E
:105840002A000A9909980B9DA847431CF4D13AE60F
:105850002200012319320A9909980B9EB047431C74
:1058600000D130E60135E368139A9B1AAB42EFDCB6
:10587000F6E60025F7E7002A00D189E60021069127
:1058800012A9059111A90391232108A809182360E1
:10589000019300922B000497029132000998FFF7C0
:1058A0001AFD050045E6C046F7B5150001938A6864
:1058B0000B6900900C00934200DA130022002B6069
:1058C00043321278002A01D001332B6023689B06F3
:1058D00002D52B6802332B60062723681F4027D090
:1058E000230043331B785A1E93412268920630D41A
:1058F0002200019943320098089EB047431C25D0EE
:10590000062320682A68E16803400025042B03D1A0
:105910008D1AEB43DB171D40A3682269934201DD1A
:105920009B1AED180027BD4220D1002010E001375E
:10593000E3682A689B1ABB42D2DD22000123193298
:1059400001990098089EB047431CF0D101204042C5
:10595000FEBD3020E1184331087021005A1C45314A
:105960000978A218433202331170C1E722000123E3
:105970001A3201990098089EB047431CE6D00137BF
:10598000D1E70000F0B589B004920A0043320593D4
:10599000039002920A7E0C000E9B6E2A00D186E0D4
:1059A0001FD8632A33D008D8002A00D18CE0582AA7
:1059B0004DD0250042352A7030E0642A01D0692A92
:1059C000F7D1196825680A1D280629D508681A60C4
:1059D000002803DA2D23029A404213706B4E0A27E7
:1059E0004FE0732A74D008D86F2A1FD0702AE0D1F4
:1059F000202209680A43226003E0752A16D0782A1B
:105A0000D7D12200782145321170614E22E0250065
:105A10001A684235111D196013682B70012365E067
:105A200008681A606906D3D500B2D1E719682568FD
:105A3000081D186008682E0605D5544E08276F2AE1
:105A40001BD00A2719E06D06F7D580B2F5E745317E
:105A50004E4E0A7018682268011D0068196015060C
:105A600021D5D30702D520231A432260102700280E
:105A700003D1202322689A4322602300002243336B
:105A80001A706368A360002B58DB042221689143DD
:105A90002160002854D1029D002B5AD02500337874
:105AA00042352B7055E05506DBD580B2D9E71A6830
:105AB0000D68101D4969186013682E0601D519601C
:105AC00002E06D06FBD519800023029D23614FE0A3
:105AD0001A68111D1960156800216268280000F01D
